:020000040000FA
:020000000528D1
:08000800090083161830850081
:100010008601831201308E0085018F01900103104B
:10002000851D1820051E20200E08100486001028AB
:10003000652085190800051E5420051A282008008F
:100040006520051A0800851D5420851937200800F1
:100050000F18302803108E1F8E0D851D2D280800C7
:100060000310901F900D851D3328462808000F1897
:100070003F2803100E1C8E0C051E3C2808000310A0
:10008000101C900C051E4228462808000E0810027D
:100090000318031D4E20031C51200800851405156C
:1000A00008008510051108001118582891185E28BD
:1000B0000130911011148F0090000800111091145C
:1000C00010088E0090019014080050308D00FF3011
:0C00D0008C008C0B69288D0B6728080041
:02400E00F13F80
:00000001FF
