:020000040000FA
:020000000528D1
:08000800090083161830850081
:10001000860183120130860085010310851D132897
:10002000051E17280E283620051A1B2827283620DB
:100030008519212827283620861F860D851D1E2814
:100040000E283620061C860C051E24280E28063095
:10005000850006182F283F20860C061C2B283F20E1
:10006000850186013F20013086000E281B308E005E
:10007000FF308D008D0B3A288E0B38280800023097
:1000800093008D0182308E00053092008D0B462842
:100090008E0B462882308E00920B46280530920047
:0600A000930B4628080046
:02400E00F13F80
:00000001FF
